{
  "contractName": "ExampleContract",
  "abi": [
    {
      "inputs": [],
      "name": "number",
      "outputs": [
        {
          "internalType": "uint256",
          "name": "",
          "type": "uint256"
        }
      ],
      "stateMutability": "view",
      "type": "function",
      "constant": true
    },
    {
      "inputs": [
        {
          "internalType": "uint256",
          "name": "_number",
          "type": "uint256"
        }
      ],
      "name": "setNumber",
      "outputs": [],
      "stateMutability": "nonpayable",
      "type": "function"
    },
    {
      "inputs": [],
      "name": "getNumber",
      "outputs": [
        {
          "internalType": "uint256",
          "name": "",
          "type": "uint256"
        }
      ],
      "stateMutability": "view",
      "type": "function",
      "constant": true
    },
    {
      "inputs": [],
      "name": "resetNumber",
      "outputs": [],
      "stateMutability": "nonpayable",
      "type": "function"
    }
  ],
  "bytecode": "0x608060405234801561001057600080fd5b5061034f806100206000396000f3fe608060405234801561001057600080fd5b506004361061004c5760003560e01c80633fb5c1cb146100515780635035df811461006d5780638381f58a14610077578063f2c9ecd814610095575b600080fd5b61006b600480360381019061006691906101aa565b6100b3565b005b610075610100565b005b61007f61014d565b60405161008c91906101e6565b60405180910390f35b61009d610153565b6040516100aa91906101e6565b60405180910390f35b600081116100f6576040517f08c379a00000000000000000000000000000000000000000000000000000000081526004016100ed9061025e565b60405180910390fd5b8060008190555050565b6000805403610144576040517f08c379a000000000000000000000000000000000000000000000000000000000815260040161013b906102ca565b60405180910390fd5b60008081905550565b60005481565b60008060005403610167576101666102ea565b5b600054905090565b600080fd5b6000819050919050565b61018781610174565b811461019257600080fd5b50565b6000813590506101a48161017e565b92915050565b6000602082840312156101c0576101bf61016f565b5b60006101ce84828501610195565b91505092915050565b6101e081610174565b82525050565b60006020820190506101fb60008301846101d7565b92915050565b600082825260208201905092915050565b7f4e756d626572206d7573742062652067726561746572207468616e207a65726f600082015250565b6000610248602083610201565b915061025382610212565b602082019050919050565b600060208201905081810360008301526102778161023b565b9050919050565b7f4e756d62657220697320616c7265616479207a65726f00000000000000000000600082015250565b60006102b4601683610201565b91506102bf8261027e565b602082019050919050565b600060208201905081810360008301526102e3816102a7565b9050919050565b7f4e487b7100000000000000000000000000000000000000000000000000000000600052600160045260246000fdfea2646970667358221220a780e930e6965ae12aa1f7274af5cf5047e833088d2423ba62eaca1c202ecf8864736f6c63430008110033",
  "immutableReferences": {},
  "source": "// SPDX-License-Identifier: MIT\npragma solidity ^0.8.17;\n\n// Contract successfully uses require()\n// Contract successfully uses assert()\n// Contract successfully uses revert() statements\n\ncontract ExampleContract {\n    uint public number;\n    \n    function setNumber(uint _number) public {\n        require(_number > 0, \"Number must be greater than zero\");\n        number = _number;\n    }\n    function getNumber() public view returns (uint) {\n        assert(number != 0);\n        return number;\n    }\n    function resetNumber() public {\n        if (number == 0) {\n            revert(\"Number is already zero\");\n        }\n        number = 0;\n    }\n}",
  "sourcePath": "/workspace/solidity_starter/contracts/example.sol",
  "compiler": {
    "name": "solc",
    "version": "0.8.17+commit.8df45f5f.Emscripten.clang"
  },
  "schemaVersion": "3.4.16",
  "updatedAt": "2024-05-28T17:59:10.533Z",
  "networkType": "ethereum",
  "devdoc": {
    "kind": "dev",
    "methods": {},
    "version": 1
  },
  "userdoc": {
    "kind": "user",
    "methods": {},
    "version": 1
  }
}