{
  "contractName": "Library",
  "abi": [
    {
      "inputs": [
        {
          "internalType": "uint256",
          "name": "",
          "type": "uint256"
        }
      ],
      "name": "books",
      "outputs": [
        {
          "internalType": "string",
          "name": "title",
          "type": "string"
        },
        {
          "internalType": "bool",
          "name": "isBorrowed",
          "type": "bool"
        }
      ],
      "stateMutability": "view",
      "type": "function",
      "constant": true
    },
    {
      "inputs": [
        {
          "internalType": "uint256",
          "name": "_bookId",
          "type": "uint256"
        },
        {
          "internalType": "string",
          "name": "_title",
          "type": "string"
        }
      ],
      "name": "addBook",
      "outputs": [],
      "stateMutability": "nonpayable",
      "type": "function"
    },
    {
      "inputs": [
        {
          "internalType": "uint256",
          "name": "_bookId",
          "type": "uint256"
        }
      ],
      "name": "borrowBook",
      "outputs": [],
      "stateMutability": "nonpayable",
      "type": "function"
    },
    {
      "inputs": [
        {
          "internalType": "uint256",
          "name": "_bookId",
          "type": "uint256"
        }
      ],
      "name": "returnBook",
      "outputs": [],
      "stateMutability": "nonpayable",
      "type": "function"
    }
  ],
  "bytecode": "0x608060405234801561001057600080fd5b50610c9c806100206000396000f3fe608060405234801561001057600080fd5b506004361061004c5760003560e01c8063070cbe2a14610051578063687440461461006d5780637e490a9e1461009e578063ca5140c9146100ba575b600080fd5b61006b600480360381019061006691906105ea565b6100d6565b005b61008760048036038101906100829190610646565b6101e4565b60405161009592919061070d565b60405180910390f35b6100b860048036038101906100b39190610646565b61029d565b005b6100d460048036038101906100cf9190610646565b610363565b005b600081511161011a576040517f08c379a000000000000000000000000000000000000000000000000000000000815260040161011190610789565b60405180910390fd5b60008083815260200190815260200160002060010160009054906101000a900460ff161561017d576040517f08c379a0000000000000000000000000000000000000000000000000000000008152600401610174906107f5565b60405180910390fd5b60405180604001604052808281526020016000151581525060008084815260200190815260200160002060008201518160000190816101bc9190610a21565b5060208201518160010160006101000a81548160ff0219169083151502179055509050505050565b600060205280600052604060002060009150905080600001805461020790610844565b80601f016020809104026020016040519081016040528092919081815260200182805461023390610844565b80156102805780601f1061025557610100808354040283529160200191610280565b820191906000526020600020905b81548152906001019060200180831161026357829003601f168201915b5050505050908060010160009054906101000a900460ff16905082565b60008082815260200190815260200160002060010160009054906101000a900460ff1615610300576040517f08c379a00000000000000000000000000000000000000000000000000000000081526004016102f790610b3f565b60405180910390fd5b6000806000838152602001908152602001600020600001805461032290610844565b90501161033257610331610b5f565b5b600160008083815260200190815260200160002060010160006101000a81548160ff02191690831515021790555050565b6000806000838152602001908152602001600020600001805461038590610844565b9050036103c7576040517f08c379a00000000000000000000000000000000000000000000000000000000081526004016103be90610bda565b60405180910390fd5b60008082815260200190815260200160002060010160009054906101000a900460ff16610429576040517f08c379a000000000000000000000000000000000000000000000000000000000815260040161042090610c46565b60405180910390fd5b600080600083815260200190815260200160002060010160006101000a81548160ff02191690831515021790555050565b6000604051905090565b600080fd5b600080fd5b6000819050919050565b6104818161046e565b811461048c57600080fd5b50565b60008135905061049e81610478565b92915050565b600080fd5b600080fd5b6000601f19601f8301169050919050565b7f4e487b7100000000000000000000000000000000000000000000000000000000600052604160045260246000fd5b6104f7826104ae565b810181811067ffffffffffffffff82111715610516576105156104bf565b5b80604052505050565b600061052961045a565b905061053582826104ee565b919050565b600067ffffffffffffffff821115610555576105546104bf565b5b61055e826104ae565b9050602081019050919050565b82818337600083830152505050565b600061058d6105888461053a565b61051f565b9050828152602081018484840111156105a9576105a86104a9565b5b6105b484828561056b565b509392505050565b600082601f8301126105d1576105d06104a4565b5b81356105e184826020860161057a565b91505092915050565b6000806040838503121561060157610600610464565b5b600061060f8582860161048f565b925050602083013567ffffffffffffffff8111156106305761062f610469565b5b61063c858286016105bc565b9150509250929050565b60006020828403121561065c5761065b610464565b5b600061066a8482850161048f565b91505092915050565b600081519050919050565b600082825260208201905092915050565b60005b838110156106ad578082015181840152602081019050610692565b60008484015250505050565b60006106c482610673565b6106ce818561067e565b93506106de81856020860161068f565b6106e7816104ae565b840191505092915050565b60008115159050919050565b610707816106f2565b82525050565b6000604082019050818103600083015261072781856106b9565b905061073660208301846106fe565b9392505050565b7f426f6f6b207469746c652063616e6e6f7420626520656d707479000000000000600082015250565b6000610773601a8361067e565b915061077e8261073d565b602082019050919050565b600060208201905081810360008301526107a281610766565b9050919050565b7f426f6f6b20616c72656164792065786973747300000000000000000000000000600082015250565b60006107df60138361067e565b91506107ea826107a9565b602082019050919050565b6000602082019050818103600083015261080e816107d2565b9050919050565b7f4e487b7100000000000000000000000000000000000000000000000000000000600052602260045260246000fd5b6000600282049050600182168061085c57607f821691505b60208210810361086f5761086e610815565b5b50919050565b60008190508160005260206000209050919050565b60006020601f8301049050919050565b600082821b905092915050565b6000600883026108d77fffffffffffffffffffffffffffffffffffffffffffffffffffffffffffffffff8261089a565b6108e1868361089a565b95508019841693508086168417925050509392505050565b6000819050919050565b600061091e6109196109148461046e565b6108f9565b61046e565b9050919050565b6000819050919050565b61093883610903565b61094c61094482610925565b8484546108a7565b825550505050565b600090565b610961610954565b61096c81848461092f565b505050565b5b8181101561099057610985600082610959565b600181019050610972565b5050565b601f8211156109d5576109a681610875565b6109af8461088a565b810160208510156109be578190505b6109d26109ca8561088a565b830182610971565b50505b505050565b600082821c905092915050565b60006109f8600019846008026109da565b1980831691505092915050565b6000610a1183836109e7565b9150826002028217905092915050565b610a2a82610673565b67ffffffffffffffff811115610a4357610a426104bf565b5b610a4d8254610844565b610a58828285610994565b600060209050601f831160018114610a8b5760008415610a79578287015190505b610a838582610a05565b865550610aeb565b601f198416610a9986610875565b60005b82811015610ac157848901518255600182019150602085019450602081019050610a9c565b86831015610ade5784890151610ada601f8916826109e7565b8355505b6001600288020188555050505b505050505050565b7f426f6f6b20697320616c726561647920626f72726f7765640000000000000000600082015250565b6000610b2960188361067e565b9150610b3482610af3565b602082019050919050565b60006020820190508181036000830152610b5881610b1c565b9050919050565b7f4e487b7100000000000000000000000000000000000000000000000000000000600052600160045260246000fd5b7f426f6f6b20646f6573206e6f7420657869737400000000000000000000000000600082015250565b6000610bc460138361067e565b9150610bcf82610b8e565b602082019050919050565b60006020820190508181036000830152610bf381610bb7565b9050919050565b7f426f6f6b206973206e6f7420626f72726f776564000000000000000000000000600082015250565b6000610c3060148361067e565b9150610c3b82610bfa565b602082019050919050565b60006020820190508181036000830152610c5f81610c23565b905091905056fea26469706673582212207a21b0246231b7e6507c344125485ad527c96f4315c468fa66852f93ae73465e64736f6c63430008110033",
  "immutableReferences": {},
  "source": "// SPDX-License-Identifier: MIT\npragma solidity ^0.8.17;\n\ncontract Library {\n    struct Book {\n        string title;\n        bool isBorrowed;\n    }\n\n    mapping(uint => Book) public books;\n\n    function addBook(uint _bookId, string memory _title) public {\n        require(bytes(_title).length > 0, \"Book title cannot be empty\");\n        require(!books[_bookId].isBorrowed, \"Book already exists\");\n        \n        books[_bookId] = Book({\n            title: _title,\n            isBorrowed: false\n        });\n    }\n\n    function borrowBook(uint _bookId) public {\n        require(!books[_bookId].isBorrowed, \"Book is already borrowed\");\n        assert(bytes(books[_bookId].title).length > 0);\n\n        books[_bookId].isBorrowed = true;\n    }\n\n    function returnBook(uint _bookId) public {\n        if (bytes(books[_bookId].title).length == 0) {\n            revert(\"Book does not exist\");\n        }\n        require(books[_bookId].isBorrowed, \"Book is not borrowed\");\n\n        books[_bookId].isBorrowed = false;\n    }\n}\n",
  "sourcePath": "D:\\Programming\\Solidity\\assessment\\contracts\\library.sol",
  "compiler": {
    "name": "solc",
    "version": "0.8.17+commit.8df45f5f.Emscripten.clang"
  },
  "schemaVersion": "3.4.16",
  "updatedAt": "2024-05-29T14:21:23.439Z",
  "networkType": "ethereum",
  "devdoc": {
    "kind": "dev",
    "methods": {},
    "version": 1
  },
  "userdoc": {
    "kind": "user",
    "methods": {},
    "version": 1
  }
}