{
  "_format": "hh-sol-artifact-1",
  "contractName": "DegenToken",
  "sourceName": "contracts/DegenTokens.sol",
  "abi": [
    {
      "inputs": [],
      "stateMutability": "nonpayable",
      "type": "constructor"
    },
    {
      "inputs": [
        {
          "internalType": "address",
          "name": "spender",
          "type": "address"
        },
        {
          "internalType": "uint256",
          "name": "allowance",
          "type": "uint256"
        },
        {
          "internalType": "uint256",
          "name": "needed",
          "type": "uint256"
        }
      ],
      "name": "ERC20InsufficientAllowance",
      "type": "error"
    },
    {
      "inputs": [
        {
          "internalType": "address",
          "name": "sender",
          "type": "address"
        },
        {
          "internalType": "uint256",
          "name": "balance",
          "type": "uint256"
        },
        {
          "internalType": "uint256",
          "name": "needed",
          "type": "uint256"
        }
      ],
      "name": "ERC20InsufficientBalance",
      "type": "error"
    },
    {
      "inputs": [
        {
          "internalType": "address",
          "name": "approver",
          "type": "address"
        }
      ],
      "name": "ERC20InvalidApprover",
      "type": "error"
    },
    {
      "inputs": [
        {
          "internalType": "address",
          "name": "receiver",
          "type": "address"
        }
      ],
      "name": "ERC20InvalidReceiver",
      "type": "error"
    },
    {
      "inputs": [
        {
          "internalType": "address",
          "name": "sender",
          "type": "address"
        }
      ],
      "name": "ERC20InvalidSender",
      "type": "error"
    },
    {
      "inputs": [
        {
          "internalType": "address",
          "name": "spender",
          "type": "address"
        }
      ],
      "name": "ERC20InvalidSpender",
      "type": "error"
    },
    {
      "inputs": [
        {
          "internalType": "address",
          "name": "owner",
          "type": "address"
        }
      ],
      "name": "OwnableInvalidOwner",
      "type": "error"
    },
    {
      "inputs": [
        {
          "internalType": "address",
          "name": "account",
          "type": "address"
        }
      ],
      "name": "OwnableUnauthorizedAccount",
      "type": "error"
    },
    {
      "anonymous": false,
      "inputs": [
        {
          "indexed": true,
          "internalType": "address",
          "name": "owner",
          "type": "address"
        },
        {
          "indexed": true,
          "internalType": "address",
          "name": "spender",
          "type": "address"
        },
        {
          "indexed": false,
          "internalType": "uint256",
          "name": "value",
          "type": "uint256"
        }
      ],
      "name": "Approval",
      "type": "event"
    },
    {
      "anonymous": false,
      "inputs": [
        {
          "indexed": true,
          "internalType": "address",
          "name": "previousOwner",
          "type": "address"
        },
        {
          "indexed": true,
          "internalType": "address",
          "name": "newOwner",
          "type": "address"
        }
      ],
      "name": "OwnershipTransferred",
      "type": "event"
    },
    {
      "anonymous": false,
      "inputs": [
        {
          "indexed": true,
          "internalType": "address",
          "name": "from",
          "type": "address"
        },
        {
          "indexed": true,
          "internalType": "address",
          "name": "to",
          "type": "address"
        },
        {
          "indexed": false,
          "internalType": "uint256",
          "name": "value",
          "type": "uint256"
        }
      ],
      "name": "Transfer",
      "type": "event"
    },
    {
      "inputs": [
        {
          "internalType": "address",
          "name": "owner",
          "type": "address"
        },
        {
          "internalType": "address",
          "name": "spender",
          "type": "address"
        }
      ],
      "name": "allowance",
      "outputs": [
        {
          "internalType": "uint256",
          "name": "",
          "type": "uint256"
        }
      ],
      "stateMutability": "view",
      "type": "function"
    },
    {
      "inputs": [
        {
          "internalType": "address",
          "name": "spender",
          "type": "address"
        },
        {
          "internalType": "uint256",
          "name": "value",
          "type": "uint256"
        }
      ],
      "name": "approve",
      "outputs": [
        {
          "internalType": "bool",
          "name": "",
          "type": "bool"
        }
      ],
      "stateMutability": "nonpayable",
      "type": "function"
    },
    {
      "inputs": [
        {
          "internalType": "address",
          "name": "account",
          "type": "address"
        }
      ],
      "name": "balanceOf",
      "outputs": [
        {
          "internalType": "uint256",
          "name": "",
          "type": "uint256"
        }
      ],
      "stateMutability": "view",
      "type": "function"
    },
    {
      "inputs": [
        {
          "internalType": "uint256",
          "name": "amount",
          "type": "uint256"
        }
      ],
      "name": "burn",
      "outputs": [],
      "stateMutability": "nonpayable",
      "type": "function"
    },
    {
      "inputs": [
        {
          "internalType": "address",
          "name": "account",
          "type": "address"
        }
      ],
      "name": "checkBalance",
      "outputs": [
        {
          "internalType": "uint256",
          "name": "",
          "type": "uint256"
        }
      ],
      "stateMutability": "view",
      "type": "function"
    },
    {
      "inputs": [],
      "name": "decimals",
      "outputs": [
        {
          "internalType": "uint8",
          "name": "",
          "type": "uint8"
        }
      ],
      "stateMutability": "view",
      "type": "function"
    },
    {
      "inputs": [
        {
          "internalType": "address",
          "name": "to",
          "type": "address"
        },
        {
          "internalType": "uint256",
          "name": "amount",
          "type": "uint256"
        }
      ],
      "name": "mint",
      "outputs": [],
      "stateMutability": "nonpayable",
      "type": "function"
    },
    {
      "inputs": [],
      "name": "name",
      "outputs": [
        {
          "internalType": "string",
          "name": "",
          "type": "string"
        }
      ],
      "stateMutability": "view",
      "type": "function"
    },
    {
      "inputs": [],
      "name": "owner",
      "outputs": [
        {
          "internalType": "address",
          "name": "",
          "type": "address"
        }
      ],
      "stateMutability": "view",
      "type": "function"
    },
    {
      "inputs": [
        {
          "internalType": "address",
          "name": "",
          "type": "address"
        }
      ],
      "name": "playerItems",
      "outputs": [
        {
          "internalType": "uint256",
          "name": "",
          "type": "uint256"
        }
      ],
      "stateMutability": "view",
      "type": "function"
    },
    {
      "inputs": [
        {
          "internalType": "uint256",
          "name": "itemId",
          "type": "uint256"
        }
      ],
      "name": "redeem",
      "outputs": [],
      "stateMutability": "nonpayable",
      "type": "function"
    },
    {
      "inputs": [],
      "name": "renounceOwnership",
      "outputs": [],
      "stateMutability": "nonpayable",
      "type": "function"
    },
    {
      "inputs": [
        {
          "internalType": "uint256",
          "name": "",
          "type": "uint256"
        }
      ],
      "name": "shop",
      "outputs": [
        {
          "internalType": "string",
          "name": "name",
          "type": "string"
        },
        {
          "internalType": "uint256",
          "name": "price",
          "type": "uint256"
        }
      ],
      "stateMutability": "view",
      "type": "function"
    },
    {
      "inputs": [],
      "name": "shopItems",
      "outputs": [
        {
          "components": [
            {
              "internalType": "string",
              "name": "name",
              "type": "string"
            },
            {
              "internalType": "uint256",
              "name": "price",
              "type": "uint256"
            }
          ],
          "internalType": "struct DegenToken.ShopItem[]",
          "name": "",
          "type": "tuple[]"
        }
      ],
      "stateMutability": "view",
      "type": "function"
    },
    {
      "inputs": [],
      "name": "symbol",
      "outputs": [
        {
          "internalType": "string",
          "name": "",
          "type": "string"
        }
      ],
      "stateMutability": "view",
      "type": "function"
    },
    {
      "inputs": [],
      "name": "totalSupply",
      "outputs": [
        {
          "internalType": "uint256",
          "name": "",
          "type": "uint256"
        }
      ],
      "stateMutability": "view",
      "type": "function"
    },
    {
      "inputs": [
        {
          "internalType": "address",
          "name": "to",
          "type": "address"
        },
        {
          "internalType": "uint256",
          "name": "amount",
          "type": "uint256"
        }
      ],
      "name": "transfer",
      "outputs": [
        {
          "internalType": "bool",
          "name": "",
          "type": "bool"
        }
      ],
      "stateMutability": "nonpayable",
      "type": "function"
    },
    {
      "inputs": [
        {
          "internalType": "address",
          "name": "from",
          "type": "address"
        },
        {
          "internalType": "address",
          "name": "to",
          "type": "address"
        },
        {
          "internalType": "uint256",
          "name": "value",
          "type": "uint256"
        }
      ],
      "name": "transferFrom",
      "outputs": [
        {
          "internalType": "bool",
          "name": "",
          "type": "bool"
        }
      ],
      "stateMutability": "nonpayable",
      "type": "function"
    },
    {
      "inputs": [
        {
          "internalType": "address",
          "name": "newOwner",
          "type": "address"
        }
      ],
      "name": "transferOwnership",
      "outputs": [],
      "stateMutability": "nonpayable",
      "type": "function"
    }
  ],
  "bytecode": "0x60806040523480156200001157600080fd5b50336040518060400160405280600a81526020017f446567656e546f6b656e000000000000000000000000000000000000000000008152506040518060400160405280600381526020017f44475400000000000000000000000000000000000000000000000000000000008152508160039081620000909190620009dd565b508060049081620000a29190620009dd565b505050600073ffffffffffffffffffffffffffffffffffffffff168173ffffffffffffffffffffffffffffffffffffffff16036200011a5760006040517f1e4fbdf700000000000000000000000000000000000000000000000000000000815260040162000111919062000b09565b60405180910390fd5b6200012b81620003d760201b60201c565b506200016933620001416200049d60201b60201c565b600a6200014f919062000cb6565b60646200015d919062000d07565b620004a660201b60201c565b600760405180604001604052806040518060400160405280600581526020017f50616e74730000000000000000000000000000000000000000000000000000008152508152602001600a81525090806001815401808255809150506001900390600052602060002090600202016000909190919091506000820151816000019081620001f69190620009dd565b50602082015181600101555050600760405180604001604052806040518060400160405280600381526020017f48617400000000000000000000000000000000000000000000000000000000008152508152602001601481525090806001815401808255809150506001900390600052602060002090600202016000909190919091506000820151816000019081620002909190620009dd565b50602082015181600101555050600760405180604001604052806040518060400160405280600681526020017f54736869727400000000000000000000000000000000000000000000000000008152508152602001601e815250908060018154018082558091505060019003906000526020600020906002020160009091909190915060008201518160000190816200032a9190620009dd565b50602082015181600101555050600760405180604001604052806040518060400160405280600681526020017f486f6f64696500000000000000000000000000000000000000000000000000008152508152602001602881525090806001815401808255809150506001900390600052602060002090600202016000909190919091506000820151816000019081620003c49190620009dd565b5060208201518160010155505062000df8565b6000600560009054906101000a900473ffffffffffffffffffffffffffffffffffffffff16905081600560006101000a81548173ffffffffffffffffffffffffffffffffffffffff021916908373ffffffffffffffffffffffffffffffffffffffff1602179055508173ffffffffffffffffffffffffffffffffffffffff168173ffffffffffffffffffffffffffffffffffffffff167f8be0079c531659141344cd1fd0a4f28419497f9722a3daafe3b4186f6b6457e060405160405180910390a35050565b60006012905090565b600073ffffffffffffffffffffffffffffffffffffffff168273ffffffffffffffffffffffffffffffffffffffff16036200051b5760006040517fec442f0500000000000000000000000000000000000000000000000000000000815260040162000512919062000b09565b60405180910390fd5b6200052f600083836200053360201b60201c565b5050565b600073ffffffffffffffffffffffffffffffffffffffff168373ffffffffffffffffffffffffffffffffffffffff1603620005895780600260008282546200057c919062000d52565b925050819055506200065f565b60008060008573ffffffffffffffffffffffffffffffffffffffff1673ffffffffffffffffffffffffffffffffffffffff1681526020019081526020016000205490508181101562000618578381836040517fe450d38c0000000000000000000000000000000000000000000000000000000081526004016200060f9392919062000d9e565b60405180910390fd5b8181036000808673ffffffffffffffffffffffffffffffffffffffff1673ffffffffffffffffffffffffffffffffffffffff16815260200190815260200160002081905550505b600073ffffffffffffffffffffffffffffffffffffffff168273ffffffffffffffffffffffffffffffffffffffff1603620006aa5780600260008282540392505081905550620006f7565b806000808473ffffffffffffffffffffffffffffffffffffffff1673ffffffffffffffffffffffffffffffffffffffff168152602001908152602001600020600082825401925050819055505b8173ffffffffffffffffffffffffffffffffffffffff168373ffffffffffffffffffffffffffffffffffffffff167fddf252ad1be2c89b69c2b068fc378daa952ba7f163c4a11628f55a4df523b3ef8360405162000756919062000ddb565b60405180910390a3505050565b600081519050919050565b7f4e487b7100000000000000000000000000000000000000000000000000000000600052604160045260246000fd5b7f4e487b7100000000000000000000000000000000000000000000000000000000600052602260045260246000fd5b60006002820490506001821680620007e557607f821691505b602082108103620007fb57620007fa6200079d565b5b50919050565b60008190508160005260206000209050919050565b60006020601f8301049050919050565b600082821b905092915050565b600060088302620008657fffffffffffffffffffffffffffffffffffffffffffffffffffffffffffffffff8262000826565b62000871868362000826565b95508019841693508086168417925050509392505050565b6000819050919050565b6000819050919050565b6000620008be620008b8620008b28462000889565b62000893565b62000889565b9050919050565b6000819050919050565b620008da836200089d565b620008f2620008e982620008c5565b84845462000833565b825550505050565b600090565b62000909620008fa565b62000916818484620008cf565b505050565b5b818110156200093e5762000932600082620008ff565b6001810190506200091c565b5050565b601f8211156200098d57620009578162000801565b620009628462000816565b8101602085101562000972578190505b6200098a620009818562000816565b8301826200091b565b50505b505050565b600082821c905092915050565b6000620009b26000198460080262000992565b1980831691505092915050565b6000620009cd83836200099f565b9150826002028217905092915050565b620009e88262000763565b67ffffffffffffffff81111562000a045762000a036200076e565b5b62000a108254620007cc565b62000a1d82828562000942565b600060209050601f83116001811462000a55576000841562000a40578287015190505b62000a4c8582620009bf565b86555062000abc565b601f19841662000a658662000801565b60005b8281101562000a8f5784890151825560018201915060208501945060208101905062000a68565b8683101562000aaf578489015162000aab601f8916826200099f565b8355505b6001600288020188555050505b505050505050565b600073ffffffffffffffffffffffffffffffffffffffff82169050919050565b600062000af18262000ac4565b9050919050565b62000b038162000ae4565b82525050565b600060208201905062000b20600083018462000af8565b92915050565b7f4e487b7100000000000000000000000000000000000000000000000000000000600052601160045260246000fd5b60008160011c9050919050565b6000808291508390505b600185111562000bb45780860481111562000b8c5762000b8b62000b26565b5b600185161562000b9c5780820291505b808102905062000bac8562000b55565b945062000b6c565b94509492505050565b60008262000bcf576001905062000ca2565b8162000bdf576000905062000ca2565b816001811462000bf8576002811462000c035762000c39565b600191505062000ca2565b60ff84111562000c185762000c1762000b26565b5b8360020a91508482111562000c325762000c3162000b26565b5b5062000ca2565b5060208310610133831016604e8410600b841016171562000c735782820a90508381111562000c6d5762000c6c62000b26565b5b62000ca2565b62000c82848484600162000b62565b9250905081840481111562000c9c5762000c9b62000b26565b5b81810290505b9392505050565b600060ff82169050919050565b600062000cc38262000889565b915062000cd08362000ca9565b925062000cff7fffffffffffffffffffffffffffffffffffffffffffffffffffffffffffffffff848462000bbd565b905092915050565b600062000d148262000889565b915062000d218362000889565b925082820262000d318162000889565b9150828204841483151762000d4b5762000d4a62000b26565b5b5092915050565b600062000d5f8262000889565b915062000d6c8362000889565b925082820190508082111562000d875762000d8662000b26565b5b92915050565b62000d988162000889565b82525050565b600060608201905062000db5600083018662000af8565b62000dc4602083018562000d8d565b62000dd3604083018462000d8d565b949350505050565b600060208201905062000df2600083018462000d8d565b92915050565b611d368062000e086000396000f3fe608060405234801561001057600080fd5b50600436106101215760003560e01c806370a08231116100ad578063c7a8495f11610071578063c7a8495f1461030c578063da69c0831461033c578063db006a751461036d578063dd62ed3e14610389578063f2fde38b146103b957610121565b806370a0823114610266578063715018a6146102965780638da5cb5b146102a057806395d89b41146102be578063a9059cbb146102dc57610121565b806323b872dd116100f457806323b872dd146101b0578063313ce567146101e057806340c10f19146101fe57806342966c681461021a5780635f5152261461023657610121565b806306fdde031461012657806308514a4114610144578063095ea7b31461016257806318160ddd14610192575b600080fd5b61012e6103d5565b60405161013b91906113ec565b60405180910390f35b61014c610467565b6040516101599190611570565b60405180910390f35b61017c60048036038101906101779190611621565b610562565b604051610189919061167c565b60405180910390f35b61019a610585565b6040516101a791906116a6565b60405180910390f35b6101ca60048036038101906101c591906116c1565b61058f565b6040516101d7919061167c565b60405180910390f35b6101e86105be565b6040516101f59190611730565b60405180910390f35b61021860048036038101906102139190611621565b6105c7565b005b610234600480360381019061022f919061174b565b6105fb565b005b610250600480360381019061024b9190611778565b61068f565b60405161025d91906116a6565b60405180910390f35b610280600480360381019061027b9190611778565b6106bf565b60405161028d91906116a6565b60405180910390f35b61029e610707565b005b6102a861071b565b6040516102b591906117b4565b60405180910390f35b6102c6610745565b6040516102d391906113ec565b60405180910390f35b6102f660048036038101906102f19190611621565b6107d7565b604051610303919061167c565b60405180910390f35b61032660048036038101906103219190611778565b610813565b60405161033391906116a6565b60405180910390f35b6103566004803603810190610351919061174b565b61082b565b6040516103649291906117cf565b60405180910390f35b6103876004803603810190610382919061174b565b6108e7565b005b6103a3600480360381019061039e91906117ff565b610a60565b6040516103b091906116a6565b60405180910390f35b6103d360048036038101906103ce9190611778565b610ae7565b005b6060600380546103e49061186e565b80601f01602080910402602001604051908101604052809291908181526020018280546104109061186e565b801561045d5780601f106104325761010080835404028352916020019161045d565b820191906000526020600020905b81548152906001019060200180831161044057829003601f168201915b5050505050905090565b60606007805480602002602001604051908101604052809291908181526020016000905b8282101561055957838290600052602060002090600202016040518060400160405290816000820180546104be9061186e565b80601f01602080910402602001604051908101604052809291908181526020018280546104ea9061186e565b80156105375780601f1061050c57610100808354040283529160200191610537565b820191906000526020600020905b81548152906001019060200180831161051a57829003601f168201915b505050505081526020016001820154815250508152602001906001019061048b565b50505050905090565b60008061056d610b6d565b905061057a818585610b75565b600191505092915050565b6000600254905090565b60008061059a610b6d565b90506105a7858285610b87565b6105b2858585610c1b565b60019150509392505050565b60006012905090565b6105cf610d0f565b6105f7826105db6105be565b600a6105e79190611a01565b836105f29190611a4c565b610d96565b5050565b6106036105be565b600a61060f9190611a01565b8161061a9190611a4c565b610623336106bf565b1015610664576040517f08c379a000000000000000000000000000000000000000000000000000000000815260040161065b90611ada565b60405180910390fd5b61068c336106706105be565b600a61067c9190611a01565b836106879190611a4c565b610e18565b50565b60006106996105be565b600a6106a59190611a01565b6106ae836106bf565b6106b89190611b29565b9050919050565b60008060008373ffffffffffffffffffffffffffffffffffffffff1673ffffffffffffffffffffffffffffffffffffffff168152602001908152602001600020549050919050565b61070f610d0f565b6107196000610e9a565b565b6000600560009054906101000a900473ffffffffffffffffffffffffffffffffffffffff16905090565b6060600480546107549061186e565b80601f01602080910402602001604051908101604052809291908181526020018280546107809061186e565b80156107cd5780601f106107a2576101008083540402835291602001916107cd565b820191906000526020600020905b8154815290600101906020018083116107b057829003601f168201915b5050505050905090565b60006108096107e4610b6d565b846107ed6105be565b600a6107f99190611a01565b856108049190611a4c565b610c1b565b6001905092915050565b60066020528060005260406000206000915090505481565b6007818154811061083b57600080fd5b906000526020600020906002020160009150905080600001805461085e9061186e565b80601f016020809104026020016040519081016040528092919081815260200182805461088a9061186e565b80156108d75780601f106108ac576101008083540402835291602001916108d7565b820191906000526020600020905b8154815290600101906020018083116108ba57829003601f168201915b5050505050908060010154905082565b6007805490506001826108fa9190611b5a565b1061093a576040517f08c379a000000000000000000000000000000000000000000000000000000000815260040161093190611bda565b60405180910390fd5b6000600760018361094b9190611b5a565b8154811061095c5761095b611bfa565b5b9060005260206000209060020201905080600101546109796105be565b600a6109859190611a01565b61098e336106bf565b6109989190611b29565b10156109d9576040517f08c379a00000000000000000000000000000000000000000000000000000000081526004016109d090611c75565b60405180910390fd5b610a05336109e56105be565b600a6109f19190611a01565b8360010154610a009190611a4c565b610e18565b6001600660003373ffffffffffffffffffffffffffffffffffffffff1673ffffffffffffffffffffffffffffffffffffffff1681526020019081526020016000206000828254610a559190611c95565b925050819055505050565b6000600160008473ffffffffffffffffffffffffffffffffffffffff1673ffffffffffffffffffffffffffffffffffffffff16815260200190815260200160002060008373ffffffffffffffffffffffffffffffffffffffff1673ffffffffffffffffffffffffffffffffffffffff16815260200190815260200160002054905092915050565b610aef610d0f565b600073ffffffffffffffffffffffffffffffffffffffff168173ffffffffffffffffffffffffffffffffffffffff1603610b615760006040517f1e4fbdf7000000000000000000000000000000000000000000000000000000008152600401610b5891906117b4565b60405180910390fd5b610b6a81610e9a565b50565b600033905090565b610b828383836001610f60565b505050565b6000610b938484610a60565b90507fffffffffffffffffffffffffffffffffffffffffffffffffffffffffffffffff8114610c155781811015610c05578281836040517ffb8f41b2000000000000000000000000000000000000000000000000000000008152600401610bfc93929190611cc9565b60405180910390fd5b610c1484848484036000610f60565b5b50505050565b600073ffffffffffffffffffffffffffffffffffffffff168373ffffffffffffffffffffffffffffffffffffffff1603610c8d5760006040517f96c6fd1e000000000000000000000000000000000000000000000000000000008152600401610c8491906117b4565b60405180910390fd5b600073ffffffffffffffffffffffffffffffffffffffff168273ffffffffffffffffffffffffffffffffffffffff1603610cff5760006040517fec442f05000000000000000000000000000000000000000000000000000000008152600401610cf691906117b4565b60405180910390fd5b610d0a838383611137565b505050565b610d17610b6d565b73ffffffffffffffffffffffffffffffffffffffff16610d3561071b565b73ffffffffffffffffffffffffffffffffffffffff1614610d9457610d58610b6d565b6040517f118cdaa7000000000000000000000000000000000000000000000000000000008152600401610d8b91906117b4565b60405180910390fd5b565b600073ffffffffffffffffffffffffffffffffffffffff168273ffffffffffffffffffffffffffffffffffffffff1603610e085760006040517fec442f05000000000000000000000000000000000000000000000000000000008152600401610dff91906117b4565b60405180910390fd5b610e1460008383611137565b5050565b600073ffffffffffffffffffffffffffffffffffffffff168273ffffffffffffffffffffffffffffffffffffffff1603610e8a5760006040517f96c6fd1e000000000000000000000000000000000000000000000000000000008152600401610e8191906117b4565b60405180910390fd5b610e9682600083611137565b5050565b6000600560009054906101000a900473ffffffffffffffffffffffffffffffffffffffff16905081600560006101000a81548173ffffffffffffffffffffffffffffffffffffffff021916908373ffffffffffffffffffffffffffffffffffffffff1602179055508173ffffffffffffffffffffffffffffffffffffffff168173ffffffffffffffffffffffffffffffffffffffff167f8be0079c531659141344cd1fd0a4f28419497f9722a3daafe3b4186f6b6457e060405160405180910390a35050565b600073ffffffffffffffffffffffffffffffffffffffff168473ffffffffffffffffffffffffffffffffffffffff1603610fd25760006040517fe602df05000000000000000000000000000000000000000000000000000000008152600401610fc991906117b4565b60405180910390fd5b600073ffffffffffffffffffffffffffffffffffffffff168373ffffffffffffffffffffffffffffffffffffffff16036110445760006040517f94280d6200000000000000000000000000000000000000000000000000000000815260040161103b91906117b4565b60405180910390fd5b81600160008673ffffffffffffffffffffffffffffffffffffffff1673ffffffffffffffffffffffffffffffffffffffff16815260200190815260200160002060008573ffffffffffffffffffffffffffffffffffffffff1673ffffffffffffffffffffffffffffffffffffffff168152602001908152602001600020819055508015611131578273ffffffffffffffffffffffffffffffffffffffff168473ffffffffffffffffffffffffffffffffffffffff167f8c5be1e5ebec7d5bd14f71427d1e84f3dd0314c0f7b2291e5b200ac8c7c3b9258460405161112891906116a6565b60405180910390a35b50505050565b600073ffffffffffffffffffffffffffffffffffffffff168373ffffffffffffffffffffffffffffffffffffffff160361118957806002600082825461117d9190611c95565b9250508190555061125c565b60008060008573ffffffffffffffffffffffffffffffffffffffff1673ffffffffffffffffffffffffffffffffffffffff16815260200190815260200160002054905081811015611215578381836040517fe450d38c00000000000000000000000000000000000000000000000000000000815260040161120c93929190611cc9565b60405180910390fd5b8181036000808673ffffffffffffffffffffffffffffffffffffffff1673ffffffffffffffffffffffffffffffffffffffff16815260200190815260200160002081905550505b600073ffffffffffffffffffffffffffffffffffffffff168273ffffffffffffffffffffffffffffffffffffffff16036112a557806002600082825403925050819055506112f2565b806000808473ffffffffffffffffffffffffffffffffffffffff1673ffffffffffffffffffffffffffffffffffffffff168152602001908152602001600020600082825401925050819055505b8173ffffffffffffffffffffffffffffffffffffffff168373ffffffffffffffffffffffffffffffffffffffff167fddf252ad1be2c89b69c2b068fc378daa952ba7f163c4a11628f55a4df523b3ef8360405161134f91906116a6565b60405180910390a3505050565b600081519050919050565b600082825260208201905092915050565b60005b8381101561139657808201518184015260208101905061137b565b60008484015250505050565b6000601f19601f8301169050919050565b60006113be8261135c565b6113c88185611367565b93506113d8818560208601611378565b6113e1816113a2565b840191505092915050565b6000602082019050818103600083015261140681846113b3565b905092915050565b600081519050919050565b600082825260208201905092915050565b6000819050602082019050919050565b600082825260208201905092915050565b60006114568261135c565b611460818561143a565b9350611470818560208601611378565b611479816113a2565b840191505092915050565b6000819050919050565b61149781611484565b82525050565b600060408301600083015184820360008601526114ba828261144b565b91505060208301516114cf602086018261148e565b508091505092915050565b60006114e6838361149d565b905092915050565b6000602082019050919050565b60006115068261140e565b6115108185611419565b9350836020820285016115228561142a565b8060005b8581101561155e578484038952815161153f85826114da565b945061154a836114ee565b925060208a01995050600181019050611526565b50829750879550505050505092915050565b6000602082019050818103600083015261158a81846114fb565b905092915050565b600080fd5b600073ffffffffffffffffffffffffffffffffffffffff82169050919050565b60006115c282611597565b9050919050565b6115d2816115b7565b81146115dd57600080fd5b50565b6000813590506115ef816115c9565b92915050565b6115fe81611484565b811461160957600080fd5b50565b60008135905061161b816115f5565b92915050565b6000806040838503121561163857611637611592565b5b6000611646858286016115e0565b92505060206116578582860161160c565b9150509250929050565b60008115159050919050565b61167681611661565b82525050565b6000602082019050611691600083018461166d565b92915050565b6116a081611484565b82525050565b60006020820190506116bb6000830184611697565b92915050565b6000806000606084860312156116da576116d9611592565b5b60006116e8868287016115e0565b93505060206116f9868287016115e0565b925050604061170a8682870161160c565b9150509250925092565b600060ff82169050919050565b61172a81611714565b82525050565b60006020820190506117456000830184611721565b92915050565b60006020828403121561176157611760611592565b5b600061176f8482850161160c565b91505092915050565b60006020828403121561178e5761178d611592565b5b600061179c848285016115e0565b91505092915050565b6117ae816115b7565b82525050565b60006020820190506117c960008301846117a5565b92915050565b600060408201905081810360008301526117e981856113b3565b90506117f86020830184611697565b9392505050565b6000806040838503121561181657611815611592565b5b6000611824858286016115e0565b9250506020611835858286016115e0565b9150509250929050565b7f4e487b7100000000000000000000000000000000000000000000000000000000600052602260045260246000fd5b6000600282049050600182168061188657607f821691505b6020821081036118995761189861183f565b5b50919050565b7f4e487b7100000000000000000000000000000000000000000000000000000000600052601160045260246000fd5b60008160011c9050919050565b6000808291508390505b6001851115611925578086048111156119015761190061189f565b5b60018516156119105780820291505b808102905061191e856118ce565b94506118e5565b94509492505050565b60008261193e57600190506119fa565b8161194c57600090506119fa565b8160018114611962576002811461196c5761199b565b60019150506119fa565b60ff84111561197e5761197d61189f565b5b8360020a9150848211156119955761199461189f565b5b506119fa565b5060208310610133831016604e8410600b84101617156119d05782820a9050838111156119cb576119ca61189f565b5b6119fa565b6119dd84848460016118db565b925090508184048111156119f4576119f361189f565b5b81810290505b9392505050565b6000611a0c82611484565b9150611a1783611714565b9250611a447fffffffffffffffffffffffffffffffffffffffffffffffffffffffffffffffff848461192e565b905092915050565b6000611a5782611484565b9150611a6283611484565b9250828202611a7081611484565b91508282048414831517611a8757611a8661189f565b5b5092915050565b7f496e73756666696369656e742062616c616e6365000000000000000000000000600082015250565b6000611ac4601483611367565b9150611acf82611a8e565b602082019050919050565b60006020820190508181036000830152611af381611ab7565b9050919050565b7f4e487b7100000000000000000000000000000000000000000000000000000000600052601260045260246000fd5b6000611b3482611484565b9150611b3f83611484565b925082611b4f57611b4e611afa565b5b828204905092915050565b6000611b6582611484565b9150611b7083611484565b9250828203905081811115611b8857611b8761189f565b5b92915050565b7f496e76616c6964206974656d2049440000000000000000000000000000000000600082015250565b6000611bc4600f83611367565b9150611bcf82611b8e565b602082019050919050565b60006020820190508181036000830152611bf381611bb7565b9050919050565b7f4e487b7100000000000000000000000000000000000000000000000000000000600052603260045260246000fd5b7f496e73756666696369656e7420746f6b656e7300000000000000000000000000600082015250565b6000611c5f601383611367565b9150611c6a82611c29565b602082019050919050565b60006020820190508181036000830152611c8e81611c52565b9050919050565b6000611ca082611484565b9150611cab83611484565b9250828201905080821115611cc357611cc261189f565b5b92915050565b6000606082019050611cde60008301866117a5565b611ceb6020830185611697565b611cf86040830184611697565b94935050505056fea2646970667358221220697c407c2234926658195562b45b595cc4acf6032321baa236b584a9167c081664736f6c63430008140033",
  "linkReferences": {},
  "deployedLinkReferences": {}
}