{
  "_format": "hh-sol-artifact-1",
  "contractName": "Assessment",
  "sourceName": "contracts/Assessment.sol",
  "abi": [
    {
      "inputs": [
        {
          "internalType": "uint256",
          "name": "initBalance",
          "type": "uint256"
        },
        {
          "internalType": "uint256",
          "name": "initStakedBalance",
          "type": "uint256"
        }
      ],
      "stateMutability": "payable",
      "type": "constructor"
    },
    {
      "inputs": [
        {
          "internalType": "uint256",
          "name": "balance",
          "type": "uint256"
        },
        {
          "internalType": "uint256",
          "name": "withdrawAmount",
          "type": "uint256"
        }
      ],
      "name": "InsufficientBalance",
      "type": "error"
    },
    {
      "anonymous": false,
      "inputs": [
        {
          "indexed": false,
          "internalType": "uint256",
          "name": "amount",
          "type": "uint256"
        }
      ],
      "name": "Deposit",
      "type": "event"
    },
    {
      "anonymous": false,
      "inputs": [
        {
          "indexed": false,
          "internalType": "uint256",
          "name": "amount",
          "type": "uint256"
        }
      ],
      "name": "Stake",
      "type": "event"
    },
    {
      "anonymous": false,
      "inputs": [
        {
          "indexed": false,
          "internalType": "uint256",
          "name": "amount",
          "type": "uint256"
        }
      ],
      "name": "Unstake",
      "type": "event"
    },
    {
      "anonymous": false,
      "inputs": [
        {
          "indexed": false,
          "internalType": "uint256",
          "name": "amount",
          "type": "uint256"
        }
      ],
      "name": "Withdraw",
      "type": "event"
    },
    {
      "inputs": [],
      "name": "balance",
      "outputs": [
        {
          "internalType": "uint256",
          "name": "",
          "type": "uint256"
        }
      ],
      "stateMutability": "view",
      "type": "function"
    },
    {
      "inputs": [
        {
          "internalType": "uint256",
          "name": "_amount",
          "type": "uint256"
        }
      ],
      "name": "deposit",
      "outputs": [],
      "stateMutability": "payable",
      "type": "function"
    },
    {
      "inputs": [],
      "name": "getBalance",
      "outputs": [
        {
          "internalType": "uint256",
          "name": "",
          "type": "uint256"
        }
      ],
      "stateMutability": "view",
      "type": "function"
    },
    {
      "inputs": [],
      "name": "getstakedBalance",
      "outputs": [
        {
          "internalType": "uint256",
          "name": "",
          "type": "uint256"
        }
      ],
      "stateMutability": "view",
      "type": "function"
    },
    {
      "inputs": [],
      "name": "owner",
      "outputs": [
        {
          "internalType": "address payable",
          "name": "",
          "type": "address"
        }
      ],
      "stateMutability": "view",
      "type": "function"
    },
    {
      "inputs": [
        {
          "internalType": "uint256",
          "name": "_amount",
          "type": "uint256"
        }
      ],
      "name": "stake",
      "outputs": [],
      "stateMutability": "nonpayable",
      "type": "function"
    },
    {
      "inputs": [],
      "name": "stakedBalance",
      "outputs": [
        {
          "internalType": "uint256",
          "name": "",
          "type": "uint256"
        }
      ],
      "stateMutability": "view",
      "type": "function"
    },
    {
      "inputs": [
        {
          "internalType": "uint256",
          "name": "_amount",
          "type": "uint256"
        }
      ],
      "name": "unstake",
      "outputs": [],
      "stateMutability": "nonpayable",
      "type": "function"
    },
    {
      "inputs": [
        {
          "internalType": "uint256",
          "name": "_withdrawAmount",
          "type": "uint256"
        }
      ],
      "name": "withdraw",
      "outputs": [],
      "stateMutability": "nonpayable",
      "type": "function"
    }
  ],
  "bytecode": "0x6080604052604051610ca2380380610ca2833981810160405281019061002591906100b5565b336000806101000a81548173ffffffffffffffffffffffffffffffffffffffff021916908373ffffffffffffffffffffffffffffffffffffffff160217905550816001819055508060028190555050506100f5565b600080fd5b6000819050919050565b6100928161007f565b811461009d57600080fd5b50565b6000815190506100af81610089565b92915050565b600080604083850312156100cc576100cb61007a565b5b60006100da858286016100a0565b92505060206100eb858286016100a0565b9150509250929050565b610b9e806101046000396000f3fe6080604052600436106100865760003560e01c80635b9f0016116100595780635b9f0016146101335780638da5cb5b1461015e578063a694fc3a14610189578063b69ef8a8146101b2578063b6b55f25146101dd57610086565b806312065fe01461008b5780631ac7331b146100b65780632e17de78146100e15780632e1a7d4d1461010a575b600080fd5b34801561009757600080fd5b506100a06101f9565b6040516100ad91906106df565b60405180910390f35b3480156100c257600080fd5b506100cb610203565b6040516100d891906106df565b60405180910390f35b3480156100ed57600080fd5b506101086004803603810190610103919061072b565b61020d565b005b34801561011657600080fd5b50610131600480360381019061012c919061072b565b610326565b005b34801561013f57600080fd5b50610148610477565b60405161015591906106df565b60405180910390f35b34801561016a57600080fd5b5061017361047d565b6040516101809190610799565b60405180910390f35b34801561019557600080fd5b506101b060048036038101906101ab919061072b565b6104a1565b005b3480156101be57600080fd5b506101c76105ba565b6040516101d491906106df565b60405180910390f35b6101f760048036038101906101f2919061072b565b6105c0565b005b6000600154905090565b6000600254905090565b60008111610250576040517f08c379a000000000000000000000000000000000000000000000000000000000815260040161024790610837565b60405180910390fd5b806002541015610295576040517f08c379a000000000000000000000000000000000000000000000000000000000815260040161028c906108c9565b60405180910390fd5b6000600154905081600260008282546102ae9190610918565b9250508190555081600160008282546102c7919061094c565b9250508190555081816102da919061094c565b600154146102eb576102ea610980565b5b7ff1f1db1ecefb0a90b3cd6a1903d29374b4a935df69fd25c7fc6ed397d3683c268260405161031a91906106df565b60405180910390a15050565b60008054906101000a900473ffffffffffffffffffffffffffffffffffffffff1673ffffffffffffffffffffffffffffffffffffffff163373ffffffffffffffffffffffffffffffffffffffff16146103b4576040517f08c379a00000000000000000000000000000000000000000000000000000000081526004016103ab90610a21565b60405180910390fd5b6000600154905081600154101561040657600154826040517fcf4791810000000000000000000000000000000000000000000000000000000081526004016103fd929190610a41565b60405180910390fd5b81600160008282546104189190610918565b92505081905550818161042b9190610918565b6001541461043c5761043b610980565b5b7f5b6b431d4476a211bb7d41c20d1aab9ae2321deee0d20be3d9fc9b1093fa6e3d8260405161046b91906106df565b60405180910390a15050565b60025481565b60008054906101000a900473ffffffffffffffffffffffffffffffffffffffff1681565b600081116104e4576040517f08c379a00000000000000000000000000000000000000000000000000000000081526004016104db90610adc565b60405180910390fd5b806001541015610529576040517f08c379a000000000000000000000000000000000000000000000000000000000815260040161052090610b48565b60405180910390fd5b6000600154905081600160008282546105429190610918565b92505081905550816002600082825461055b919061094c565b92505081905550818161056e9190610918565b6001541461057f5761057e610980565b5b7f227a473b70d2f893cc7659219575c030a63b5743024fe1e0c1a680e708b1525a826040516105ae91906106df565b60405180910390a15050565b60015481565b6000600154905060008054906101000a900473ffffffffffffffffffffffffffffffffffffffff1673ffffffffffffffffffffffffffffffffffffffff163373ffffffffffffffffffffffffffffffffffffffff1614610655576040517f08c379a000000000000000000000000000000000000000000000000000000000815260040161064c90610a21565b60405180910390fd5b8160016000828254610667919061094c565b92505081905550818161067a919061094c565b6001541461068b5761068a610980565b5b7f4d6ce1e535dbade1c23defba91e23b8f791ce5edc0cc320257a2b364e4e38426826040516106ba91906106df565b60405180910390a15050565b6000819050919050565b6106d9816106c6565b82525050565b60006020820190506106f460008301846106d0565b92915050565b600080fd5b610708816106c6565b811461071357600080fd5b50565b600081359050610725816106ff565b92915050565b600060208284031215610741576107406106fa565b5b600061074f84828501610716565b91505092915050565b600073ffffffffffffffffffffffffffffffffffffffff82169050919050565b600061078382610758565b9050919050565b61079381610778565b82525050565b60006020820190506107ae600083018461078a565b92915050565b600082825260208201905092915050565b7f556e7374616b656420616d6f756e74206d75737420626520677265617465722060008201527f7468616e20300000000000000000000000000000000000000000000000000000602082015250565b60006108216026836107b4565b915061082c826107c5565b604082019050919050565b6000602082019050818103600083015261085081610814565b9050919050565b7f496e73756666696369656e74207374616b65642062616c616e636520746f207560008201527f6e7374616b650000000000000000000000000000000000000000000000000000602082015250565b60006108b36026836107b4565b91506108be82610857565b604082019050919050565b600060208201905081810360008301526108e2816108a6565b9050919050565b7f4e487b7100000000000000000000000000000000000000000000000000000000600052601160045260246000fd5b6000610923826106c6565b915061092e836106c6565b9250828203905081811115610946576109456108e9565b5b92915050565b6000610957826106c6565b9150610962836106c6565b925082820190508082111561097a576109796108e9565b5b92915050565b7f4e487b7100000000000000000000000000000000000000000000000000000000600052600160045260246000fd5b7f596f7520617265206e6f7420746865206f776e6572206f66207468697320616360008201527f636f756e74000000000000000000000000000000000000000000000000000000602082015250565b6000610a0b6025836107b4565b9150610a16826109af565b604082019050919050565b60006020820190508181036000830152610a3a816109fe565b9050919050565b6000604082019050610a5660008301856106d0565b610a6360208301846106d0565b9392505050565b7f5374616b656420616d6f756e74206d757374206265206772656174657220746860008201527f616e203000000000000000000000000000000000000000000000000000000000602082015250565b6000610ac66024836107b4565b9150610ad182610a6a565b604082019050919050565b60006020820190508181036000830152610af581610ab9565b9050919050565b7f496e73756666696369656e742062616c616e636520746f207374616b65000000600082015250565b6000610b32601d836107b4565b9150610b3d82610afc565b602082019050919050565b60006020820190508181036000830152610b6181610b25565b905091905056fea26469706673582212202dd745203855a869e6fff8c7ab98dd5999b1c977c0e3f2c998953bd8b916bdf664736f6c63430008110033",
  "linkReferences": {},
  "deployedLinkReferences": {}
}